:020000040800F2
:1000000000500020310D00087B0D00087D0D000818
:100010007F0D0008810D0008830D0008000000001E
:10002000000000000000000000000000850D000836
:10003000870D000800000000890D00088B0D0008E6
:10004000790D0008790D0008790D0008790D000878
:10005000790D0008790D0008E5070008790D000802
:10006000790D0008790D0008790D0008790D000858
:10007000790D0008790D0008790D0008790D000848
:10008000790D0008790D0008790D0008790D000838
:10009000790D0008790D0008790D0008790D000828
:1000A000790D0008790D0008790D0008790D000818
:1000B000790D0008B50C0008890C0008790D0008BE
:1000C000790D0008790D0008790D0008790D0008F8
:1000D000790D0008790D0008790D0008790D0008E8
:1000E000790D0008790D0008790D00080000000066
:1000F0000000000000000000000000000000000000
:0C01000000000000000000005FF808F1A3
:10010C0010B5054C237833B9044B13B10448AFF345
:10011C0000800123237010BD0800002000000000A7
:10012C000C01000808B5034B1BB103490348AFF39E
:10013C00008008BD000000000C0000200C0100082D
:10014C00C378FBB1154BDA68D243C2F30222C2F179
:10015C00040C0F2323FA02F2417801FA0CF1837894
:10016C0013400B431B010278DBB20D490A4482F8A1
:10017C000033037803F01F005B090122824041F831
:10018C0023207047037803F01F015B0901228A408A
:10019C002033034941F82320704700BF00ED00E0F5
:1001AC0000E100E0064A136803405269024202D0A3
:1001BC001BB900207047002070470120704700BF1A
:1001CC0000040140014B5861704700BF000401401E
:1001DC0030B5CB7803F00F02964613F0100F03D016
:1001EC0091F802E04EEA020E0B7803B30468002388
:1001FC0001E042610133072B18D801229A40B1F873
:10020C0000C032EA0C05F5D14FEA830C0F2505FA34
:10021C000CF524EA05040EFA0CFC4CEA0404CD7827
:10022C00282DE6D0482DE5D10261E3E704600B8868
:10023C00FF2B25D94468002303E0CD78482D1CD032
:10024C000133072B1BD803F1080C012202FA0CF224
:10025C00B1F800C032EA0C05F2D14FEA830C0F253D
:10026C0005FA0CF524EA05040EFA0CFC4CEA04041D
:10027C00CD78282DE1D14261DFE70261E0E74460EF
:10028C0030BD8368194201D00120704700207047AF
:10029C000AB10161704741617047000021B1054A04
:1002AC009369184390617047024A936923EA0000EE
:1002BC00906170470010024021B1054AD369184380
:1002CC00D0617047024AD36923EA0000D0617047BD
:1002DC000010024000B5B0F820E01FFA8EFE2EF0A0
:1002EC00010E1FFA8EFEA0F820E0B0F818C01FFA1D
:1002FC008CFCB0F820E01FFA8EFE2CF0F30C1B01E6
:10030C009BB213434CEA030C124A904217D0124B87
:10031C00984214D0B0F1804F11D0A3F59833984285
:10032C000DD003F58063984209D003F580639842A1
:10033C0005D02EF00A03194341F0010104E02EF020
:10034C000203194341F00101A0F818C001845DF8C3
:10035C0004FB00BF002C01400034014010B5B0F884
:10036C0020C01FFA8CFC2CF0100C1FFA8CFCA0F88F
:10037C0020C0B0F818E0B0F820C01FFA8CFC0C01BB
:10038C00A4B22EF4407E4FEA0E5E4FEA1E5E1B03B3
:10039C009BB243EA0E03120292B21A43134B9842D9
:1003AC0019D003F50063984215D0B0F1804F12D0EC
:1003BC00A3F5983398420ED003F5806398420AD087
:1003CC0003F58063984206D02CF0A00C4CEA010C8B
:1003DC004CF0100C05E02CF0200C4CEA040C4CF00A
:1003EC00100C0283A0F820C010BD00BF002C0140EF
:1003FC0030B50C46B0F820C01FFA8CFC2CF4807C75
:10040C001FFA8CFCA0F820C0B0F81CE01FFA8EFE7E
:10041C00018C89B22502ADB22EF0F30E1B019BB2FA
:10042C0013434EEA0303124A904219D002F50062BC
:10043C00904215D0B0F1804F12D0A2F59832904274
:10044C000ED002F5806290420AD002F58062904292
:10045C0006D021F4206C4CEA040141F4807104E0D4
:10046C0021F40071294341F480718383018430BDF0
:10047C00002C014010B5B0F820C01FFA8CFC2CF4F5
:10048C00805C1FFA8CFCA0F820C0B0F81CE0B0F81F
:10049C0020C01FFA8CFC0C03A4B22EF4407E4FEA51
:1004AC000E5E4FEA1E5E120292B242EA0E021B036D
:1004BC009BB21343144A90421DD002F50062904245
:1004CC0019D0B0F1804F16D0A2F59832904212D0CC
:1004DC0002F5806290420ED002F5806290420AD002
:1004EC002CF4007C4FEA4C4C4FEA5C4C41EA0C017A
:1004FC0041F4805104E02CF40051214341F480512B
:10050C008383018410BD00BF002C014003889BB283
:10051C00214A904212D002F5006290420ED0B0F106
:10052C00804F0BD0A2F59832904207D002F5806232
:10053C00904203D002F58062904203D123F0700305
:10054C004A881343154A904208D002F580629042C3
:10055C0004D023F440739BB2CA88134303808B8866
:10056C0083850B8803850C4B98420FD003F50063F1
:10057C0098420BD003F54063984207D003F5806393
:10058C00984203D003F58063984201D10B7A03861D
:10059C0001238382704700BF002C014000100040F3
:1005AC0029B103889BB243F0010303807047038891
:1005BC009BB223F001039BB20380704722B1838965
:1005CC009BB21943818170478389C94389B2194011
:1005DC0081817047038B9BB223F00C039BB2038386
:1005EC00038B9BB20B4303837047038B9BB223F4A7
:1005FC0040639BB20383038B9BB2090289B20B430A
:10060C0003837047838B9BB223F00C039BB28383D1
:10061C00838B9BB20B4383837047838B9BB223F4F6
:10062C0040639BB28383838B9BB2090289B20B43D9
:10063C008383704738B505460C460B886BB1042B89
:10064C0015D0082B1DD00B898A884988FFF712FF1B
:10065C00E1882846FFF7E1FF38BD0B898A88498875
:10066C00FFF738FEE1882846FFF7B4FFF4E70B8963
:10067C008A884988FFF772FEE1882846FFF7B5FFA4
:10068C00EAE70B898A884988FFF7B2FEE188284699
:10069C00FFF7B8FFE0E7808C80B27047028A83894D
:1006AC000B40114202D01BB900207047002070474C
:1006BC0001207047C94389B20182704782B0002380
:1006CC00019300932C4A136843F4803313602A4B34
:1006DC001B6803F400330093019B01330193009BCF
:1006EC001BB9019BB3F5A06FF1D1234B1B6813F41D
:1006FC00003F06D001230093009B012B04D002B0D5
:10070C00704700230093F7E71C4B1A6842F0100265
:10071C001A601A6822F003021A601A6842F0020288
:10072C001A60A3F580535A685A605A685A605A681E
:10073C0042F480625A605A6822F47C125A605A68F9
:10074C0042F4E8125A601A6842F080721A600A4B3E
:10075C001B6813F0007FFAD0074B5A6822F0030293
:10076C005A605A6842F002025A60034B5B6803F00D
:10077C000C03082BF9D1C2E7001002400020024004
:10078C0008B5FFF79BFF08BD08B5104B1A6842F07F
:10079C0001021A6059680E4A0A405A601A6822F01F
:1007AC00847222F480321A601A6822F480221A6051
:1007BC005A6822F4FE025A604FF41F029A60FFF747
:1007CC00DFFF044B4FF000629A6008BD001002403E
:1007DC000000FFF800ED00E038B50120FFF7E2FC67
:1007EC0000B938BD194D01212846FFF74AFD0446D2
:1007FC0002212846FFF745FD154B1B880BB9012C30
:10080C0007D0012B12D0124B1C800120FFF7DAFC11
:10081C00E7E728B90F4A138801331BB21380F2E7BC
:10082C000C4A1388013B1BB21380ECE7002CEAD175
:10083C00012805D0074A1388013B1BB21380E2E75D
:10084C00044A138801331BB21380DCE7000C01400F
:10085C00260000202400002070B582B00121082061
:10086C00FFF71CFD14238DF8073003238DF8063099
:10087C004FF40066ADF804600C4C01A92046FFF75C
:10088C00A7FC4FF48055ADF8045001A92046FFF7A2
:10089C009FFC012231462046FFF7FAFC0122294633
:1008AC002046FFF7F5FC02B070BD00BF000C014004
:1008BC0010B50D4C01224FF480512046FFF7E8FC97
:1008CC0001224FF400612046FFF7E2FC00224FF4B6
:1008DC0080512046FFF7DCFC00224FF400612046DB
:1008EC00FFF7D6FC10BD00BF000C014010B50A4C40
:1008FC0000224FF480512046FFF7CAFC01224FF42E
:10090C0000612046FFF7C4FC01224FF480512046C1
:10091C00FFF7BEFC10BD00BF000C014070B50646D1
:10092C00002419E0802323411E42134D14BF0122E1
:10093C0000224FF480512846FFF7AAFC01224FF405
:10094C0000612846FFF7A4FC00224FF40061284602
:10095C00FFF79EFC0134E4B2072CE3D9064C0122CC
:10096C004FF400612046FFF793FC00224FF4006126
:10097C002046FFF78DFC70BD000C014010B50446FD
:10098C00FFF796FF7820FFF7C9FF0020FFF7C6FF9F
:10099C002046FFF7C3FFFFF7A9FF10BD10B50446B3
:1009AC00FFF786FF7820FFF7B9FF4020FFF7B6FF6F
:1009BC002046FFF7B3FFFFF799FF10BD10B50C46AB
:1009CC0040F0B000FFF7DAFF200940F01000FFF70D
:1009DC00D5FF04F00F00FFF7D1FF10BD38B500258F
:1009EC0009E00020FFF7DAFF0134E4B214F0800FC5
:1009FC00F7D00135EDB2072D05D800212846FFF7B9
:100A0C00DDFF0024F2E738BDF8B51546461E76002A
:100A1C00F6B24F1EFF00FFB239463046FFF7CEFF4D
:100A2C00002409E0A5F120030F4A02EB0313185D23
:100A3C00FFF7B4FF0134E4B2072CF3D9701C39462C
:100A4C00C0B2FFF7BBFF00240BE0A5F1200304F1BB
:100A5C000802054901EB0313985CFFF79FFF013473
:100A6C00E4B2072CF1D9F8BDD40D0008F8B507464F
:100A7C000E461546002406E0A119C9B23846FFF708
:100A8C00C3FF0134E4B22A5D002AF5D1F8BD024659
:100A9C00012002E002FB00F019464B1E0029F9D19F
:100AAC00704700002DE9F8438146884617461E46DC
:100ABC00002419E004EB0805EDB2311B01390A20C2
:100ACC00FFF7E5FFB7FBF0F0094AA2FB0032D208B2
:100ADC0002EB8202A0EB42023032D2B229464846E7
:100AEC00FFF792FF0134E4B2B442E3D3BDE8F883DC
:100AFC00CDCCCCCC08B5002204E00133B3F57A7F21
:100B0C00FBD30132B2F57A7F01D20023F6E7FFF76F
:100B1C00A3FEAE20FFF732FFD520FFF72FFF80207A
:100B2C00FFF72CFFA820FFF729FF3F20FFF726FF38
:100B3C00D320FFF723FF0020FFF720FF4020FFF713
:100B4C001DFFA120FFF71AFFC820FFF717FFDA20BF
:100B5C00FFF714FF1220FFF711FF8120FFF70EFFA4
:100B6C00CF20FFF70BFFD920FFF708FFF120FFF78D
:100B7C0005FFDB20FFF702FF3020FFF7FFFEA4206C
:100B8C00FFF7FCFEA620FFF7F9FE8D20FFF7F6FE1F
:100B9C001420FFF7F3FEAF20FFF7F0FEFFF71EFF68
:100BAC0008BD000030B583B001210420FFF776FBAF
:100BBC008023ADF8043010238DF8073003258DF811
:100BCC0006500A4C01A92046FFF702FB4023ADF862
:100BDC00043004238DF807308DF806500DEB03011B
:100BEC002046FFF7F5FA03B030BD00BF0008014006
:100BFC0070B588B001210220FFF75EFB4FF6FF7342
:100C0C00ADF818304723ADF814300025ADF81A5064
:100C1C00ADF81650154E05A93046FFF777FCADF828
:100C2C000850ADF80A500124ADF80C40ADF80E5048
:100C3C00ADF8105002A93046FFF7FCFC1D238DF8CF
:100C4C0004308DF805408DF806408DF8074001A85A
:100C5C00FFF776FA224602213046FFF7AFFC214619
:100C6C003046FFF79DFC08B070BD00BF000400408B
:100C7C00014BB3F9000070472800002008B5012192
:100C8C000748FFF70BFD00B908BD064A13889BB255
:100C9C0001339BB2138001210148FFF70BFDF3E7F1
:100CAC00000800402A00002008B502210848FFF780
:100CBC00F5FC00B908BD02210548FFF7FBFC054A0D
:100CCC0013685168013341F1000113605160F1E781
:100CDC00000400400000002008B5FFF70BFFFFF7F1
:100CEC0061FFFFF785FF0C4A01210846FFF7BEFEA6
:100CFC00FFF7BEFF82B2094B1A80062301210220A6
:100D0C00FFF7D0FE0648FFF7C6FC0246062301217A
:100D1C000320FFF7C7FEEBE7C41300082C000020EC
:100D2C0000040040002103E00B4B5B58435004319E
:100D3C000A480B4B42189A42F6D30A4A02E00023A7
:100D4C0042F8043B084B9A42F9D3FFF71DFD00F023
:100D5C0017F8FFF7C1FF7047F013000800000020E0
:100D6C00080000200800002030000020FEE770473B
:100D7C00FEE7FEE7FEE7FEE77047704770477047F7
:100D8C0070B500260C4D0D4C641BA410A64209D165
:100D9C0000F018FB00260A4D0A4C641BA410A64256
:100DAC0005D170BD55F8043B98470136EEE755F870
:100DBC00043B98470136F2E7E8130008E8130008F3
:100DCC00E8130008EC13000800000000000000000D
:100DDC000000000000000000000000F8000000000F
:100DEC00000000333000000000100C06100C060050
:100DFC00000000000000000040C07840C0784000B7
:100E0C00043F04043F040400007088FC0830000018
:100E1C00001820FF211E0000F008F000E018000070
:100E2C0000211C031E211E0000F008887000000029
:100E3C001E2123241927211010160E00000000007B
:100E4C000000000000000000000000E01804020098
:100E5C00000000071820400000020418E000000009
:100E6C000040201807000000404080F08040400007
:100E7C000202010F01020200000000F0000000005D
:100E8C000101011F01010100000000000000000031
:100E9C0080B07000000000000000000000000000A6
:100EAC00000101010101010100000000000000002F
:100EBC0000303000000000000000000080601804CA
:100ECC00006018060100000000E010080810E000A7
:100EDC00000F102020100F00001010F80000000070
:100EEC000020203F202000000070080808887000B7
:100EFC000030282422213000003008888848300037
:100F0C000018202020110E000000C02010F8000056
:100F1C0000070424243F240000F8088888080800EF
:100F2C000019212020110E0000E010888818000004
:100F3C00000F112020110E0000380808C8380800D6
:100F4C000000003F00000000007088080888700056
:100F5C00001C222121221C0000E010080810E000D7
:100F6C000000312222110F00000000C0C000000060
:100F7C000000003030000000000000800000000085
:100F8C00000080600000000000008040201008007D
:100F9C000001020408102000404040404040400046
:100FAC000404040404040400000810204080000021
:100FBC000020100804020100007048080808F00026
:100FCC000000003036010000C030C828E810E000F6
:100FDC000718272423140B000000C038E000000081
:100FEC00203C23020227382008F8888888700000EB
:100FFC00203F202020110E00C030080808083800BF
:10100C00071820202010080008F808080810E00035
:10101C00203F202020100F0008F88888E8081000D6
:10102C00203F20202320180008F88888E8081000AA
:10103C00203F200003000000C030080808380000E2
:10104C0007182020221E020008F808000008F808E3
:10105C00203F210101213F20000808F8080800006A
:10106C000020203F2020000000000808F80808009D
:10107C00C08080807F00000008F888C02818080015
:10108C00203F20012638200008F80800000000004E
:10109C00203F20202020300008F8F800F8F8080045
:1010AC00203F003F003F200008F830C00008F8083F
:1010BC00203F200007183F00E01008080810E0004F
:1010CC000F10202020100F0008F808080808F00066
:1010DC00203F210101010000E01008080810E00089
:1010EC000F18242438504F0008F88888888870001E
:1010FC00203F2000030C30200070880808083800BE
:10110C000038202121221C00180808F808081800B3
:10111C000000203F2000000008F808000008F80834
:10112C00001F202020201F000878880000C83808E5
:10113C00000007380E010000F80800F80008F8005D
:10114C00033C0700073C03000818688080681808F7
:10115C0020302C03032C30200838C800C838080075
:10116C000000203F2000000010080808C8380800C4
:10117C002038262120201800000000FE0202020068
:10118C000000007F40404000000C30C00000000018
:10119C00000000010638C00000020202FE00000040
:1011AC00004040407F0000000000040202020400E6
:1011BC000000000000000000000000000000000023
:1011CC00808080808080808000020204000000000B
:1011DC000000000000000000000080808080000003
:1011EC000019242222223F2008F8008080000000F1
:1011FC00003F112020110E000000008080800000B4
:10120C00000E112020201100000000808088F800C2
:10121C00000E112020103F200000808080800000F4
:10122C00001F222222221300008080F08888881858
:10123C000020203F20200000000080808080800063
:10124C00006B94949493600008F8008080800000F8
:10125C00203F210000203F200080989800000000D3
:10126C000020203F20200000000000809898000003
:10127C0000C08080807F000008F800008080800023
:10128C00203F24022D302000000808F80000000048
:10129C000020203F20200000808080808080800003
:1012AC00203F20003F20003F808000808080000095
:1012BC00203F210000203F20000080808080000023
:1012CC00001F202020201F00808000808000000054
:1012DC0080FFA12020110E00000000808080800083
:1012EC00000E112020A0FF80808080008080800074
:1012FC0020203F21200001000000808080808000A1
:10130C000033242424241900008080E08080000015
:10131C000000001F20200000808000000080800062
:10132C00001F202020103F208080800000808080C3
:10133C0000010E3008060100808000800080808053
:10134C000F300C030C300F00008080008080800078
:10135C000020312E0E3120008080800000808080A3
:10136C0080818E7018060100008080808080800053
:10137C000021302C2221300000000000807C020271
:10138C0000000000003F404000000000FF00000093
:10139C0000000000FF0000000002027C8000000042
:1013AC000040403F0000000000060101020204045E
:1013BC00000000000000000044697374616E6365F6
:1013CC003A000000F8B500BFF8BC08BC9E46704758
:0C13DC00F8B500BFF8BC08BC9E46704786
:0413E80031010008C7
:0413EC000D010008E7
:0813F000FEFF000000000000F8
:0400000508000D31B1
:00000001FF
