:020000040800F2
:1000000000500020CD04000817050008190500085D
:100010001B0500081D0500081F0500080000000062
:1000200000000000000000000000000021050008A2
:10003000230500080000000025050008270500082A
:100040001505000815050008150500081505000828
:100050001505000815050008150500081505000818
:100060001505000815050008150500081505000808
:1000700015050008150500081505000815050008F8
:1000800015050008150500081505000815050008E8
:1000900015050008150500081505000815050008D8
:1000A00015050008150500081505000815050008C8
:1000B00015050008150500081505000815050008B8
:1000C00015050008150500081505000815050008A8
:1000D0001505000815050008150500081505000898
:1000E00015050008150500081505000800000000AA
:1000F0000000000000000000000000000000000000
:0C01000000000000000000005FF808F1A3
:10010C0010B5054C237833B9044B13B10448AFF345
:10011C0000800123237010BD0000002000000000AF
:10012C000C01000808B5034B1BB103490348AFF39E
:10013C00008008BD00000000040000200C01000835
:10014C00C06C80B270470368194201D0012070471F
:10015C000020704730B5CB7803F00F02964613F0B1
:10016C00100F03D091F802E04EEA020E0B7803B3A5
:10017C000468002301E042610133072B18D80122E7
:10018C009A40B1F800C032EA0C05F5D14FEA830C65
:10019C000F2505FA0CF524EA05040EFA0CFC4CEAC2
:1001AC000404CD78282DE6D0482DE5D10261E3E793
:1001BC0004600B88FF2B25D94468002303E0CD781D
:1001CC00482D1CD00133072B1BD803F1080C01223E
:1001DC0002FA0CF2B1F800C032EA0C05F2D14FEA87
:1001EC00830C0F2505FA0CF524EA05040EFA0CFC19
:1001FC004CEA0404CD78282DE1D14261DFE702619D
:10020C00E0E7446030BDC368194201D0012070475B
:10021C0000207047016170474161704721B1054A68
:10022C009369184390617047024A936923EA00006E
:10023C00906170470010024082B00023019300933C
:10024C002C4A136843F4803313602A4B1B6803F465
:10025C0000330093019B01330193009B1BB9019B5D
:10026C00B3F5A06FF1D1234B1B6813F4003F06D0FC
:10027C0001230093009B012B04D002B07047002394
:10028C000093F7E71C4B1A6842F010021A601A68C8
:10029C0022F003021A601A6842F002021A60A3F5F7
:1002AC0080535A685A605A685A605A6842F480629D
:1002BC005A605A6822F47C125A605A6842F4E81266
:1002CC005A601A6842F080721A600A4B1B6813F06D
:1002DC00007FFAD0074B5A6822F003025A605A6822
:1002EC0042F002025A60034B5B6803F00C03082BCC
:1002FC00F9D1C2E7001002400020024008B5FFF718
:10030C009BFF08BD08B5104B1A6842F001021A6039
:10031C0059680E4A0A405A601A6822F0847222F414
:10032C0080321A601A6822F480221A605A6822F409
:10033C00FE025A604FF41F029A60FFF7DFFF044B76
:10034C004FF000629A6008BD001002400000FFF8F8
:10035C0000ED00E000B583B001210820FFF75EFF3F
:10036C000023019310238DF807304FF48063ADF810
:10037C00043003238DF8063001A90348FFF7EAFE89
:10038C0003B05DF804FB00BF000C014010B504463F
:10039C004FF480610B48FFF736FF40B94FF4806192
:1003AC000848FFF737FF204600F05FF810BD4FF408
:1003BC0080610448FFF730FFC4F57A7000F055F8FF
:1003CC00F4E700BF000C014008B502210448FFF718
:1003DC00BAFE0028F9D00248FFF7B2FE08BD00BFF4
:1003EC000024014010B582B00023019301210420A8
:1003FC00FFF714FF10238DF807300E23ADF80430EF
:10040C0003238DF80630094C01A92046FFF7A2FE04
:10041C0002212046FFF7FEFE04212046FFF7FAFEDC
:10042C0008212046FFF7F6FE02B010BD000801407F
:10043C0008B5FFF7EFFE08BD08B5FFF7EDFE08BDE8
:10044C0000EBC000C0004FF0E023586100229A611D
:10045C0005221A614FF0E0231B6913F4803FF9D099
:10046C004FF0E02304221A61704710B504E04FF4FA
:10047C007A70FFF7E5FF2046441E0028F7D110BD27
:10048C0008B5FFF7AFFFFFF765FF09E002210B4846
:10049C00FFF7CEFF4FF4FA70FFF7E7FFFFF776FF99
:1004AC00FFF792FF0128F1D002210448FFF7C4FFA7
:1004BC004FF4FA70FFF7D9FFF0E700BF00080140D6
:1004CC00002103E00B4B5B58435004310A480B4BA3
:1004DC0042189A42F6D30A4A02E0002342F8043B3F
:1004EC00084B9A42F9D3FFF70DFF00F017F8FFF70E
:1004FC00C7FF704790050008000000200000002096
:10050C00000000201C000020FEE77047FEE7FEE71D
:10051C00FEE7FEE7704770477047704770B50026DE
:10052C000C4D0D4C641BA410A64209D100F01AF816
:10053C0000260A4D0A4C641BA410A64205D170BDBE
:10054C0055F8043B98470136EEE755F8043B9847BD
:10055C000136F2E7880500088805000888050008C0
:10056C008C050008F8B500BFF8BC08BC9E46704767
:0C057C00F8B500BFF8BC08BC9E467047F4
:040588003101000835
:04058C000D01000855
:04000005080004CD1E
:00000001FF
