:020000040800F2
:10000000005000208D090008D7090008D909000810
:10001000DB090008DD090008DF0900080000000016
:10002000000000000000000000000000E1090008DE
:10003000E309000800000000E5090008E7090008DE
:10004000D5090008D5090008D5090008D509000818
:10005000D5090008D509000801050008D5090008E0
:10006000D5090008D5090008D5090008D5090008F8
:10007000D5090008D5090008D5090008D5090008E8
:10008000D5090008D5090008D5090008D5090008D8
:10009000D5090008D5090008D5090008D5090008C8
:1000A000D5090008D5090008D5090008D5090008B8
:1000B000D5090008D509000819090008D509000864
:1000C000D5090008D5090008D5090008D509000898
:1000D000D5090008D5090008D5090008D509000888
:1000E000D5090008D5090008D5090008000000005E
:1000F0000000000000000000000000000000000000
:0C01000000000000000000005FF808F1A3
:10010C0010B5054C237833B9044B13B10448AFF345
:10011C0000800123237010BD0400002000000000AB
:10012C000C01000808B5034B1BB103490348AFF39E
:10013C00008008BD00000000080000200C01000831
:10014C0040F0BF6040F40030014BD860704700BFF6
:10015C0000ED00E0C378FBB1154BDA68D243C2F373
:10016C000222C2F1040C0F2323FA02F2417801FAA5
:10017C000CF1837813400B431B010278DBB20D4961
:10018C000A4482F80033037803F01F005B09012254
:10019C00824041F823207047037803F01F015B096C
:1001AC0001228A402033034941F82320704700BFC5
:1001BC0000ED00E000E100E0064A136803405269DC
:1001CC00024202D01BB9002070470020704701206A
:1001DC00704700BF00040140014B5861704700BFDD
:1001EC000004014030B5CB7803F00F02964613F0B3
:1001FC00100F03D091F802E04EEA020E0B7803B315
:10020C000468002301E042610133072B18D8012256
:10021C009A40B1F800C032EA0C05F5D14FEA830CD4
:10022C000F2505FA0CF524EA05040EFA0CFC4CEA31
:10023C000404CD78282DE6D0482DE5D10261E3E702
:10024C0004600B88FF2B25D94468002303E0CD788C
:10025C00482D1CD00133072B1BD803F1080C0122AD
:10026C0002FA0CF2B1F800C032EA0C05F2D14FEAF6
:10027C00830C0F2505FA0CF524EA05040EFA0CFC88
:10028C004CEA0404CD78282DE1D14261DFE702610C
:10029C00E0E7446030BD8368194201D0012070470B
:1002AC00002070470AB1016170474161704700003E
:1002BC0021B1054A9369184390617047024A9369CA
:1002CC0023EA0000906170470010024021B1054AFA
:1002DC00D3691843D0617047024AD36923EA0000FE
:1002EC00D06170470010024003889BB2214A9042B3
:1002FC0012D002F5006290420ED0B0F1804F0BD0BC
:10030C00A2F59832904207D002F58062904203D059
:10031C0002F58062904203D123F070034A881343A4
:10032C00154A904208D002F58062904204D023F422
:10033C0040739BB2CA88134303808B8883850B88D8
:10034C0003850C4B98420FD003F5006398420BD0F9
:10035C0003F54063984207D003F58063984203D0BD
:10036C0003F58063984201D10B7A038601238382C3
:10037C00704700BF002C01400010004029B10388D9
:10038C009BB243F001030380704703889BB223F0B8
:10039C0001039BB20380704722B183899BB219433E
:1003AC00818170478389C94389B219408181704723
:1003BC00808C80B27047028A83890B40114202D034
:1003CC001BB9002070470020704701207047C943BB
:1003DC0089B201827047000082B000230193009320
:1003EC002C4A136843F4803313602A4B1B6803F4C4
:1003FC0000330093019B01330193009B1BB9019BBC
:10040C00B3F5A06FF1D1234B1B6813F4003F06D05A
:10041C0001230093009B012B04D002B070470023F2
:10042C000093F7E71C4B1A6842F010021A601A6826
:10043C0022F003021A601A6842F002021A60A3F555
:10044C0080535A685A605A685A605A6842F48062FB
:10045C005A605A6822F47C125A605A6842F4E812C4
:10046C005A601A6842F080721A600A4B1B6813F0CB
:10047C00007FFAD0074B5A6822F003025A605A6880
:10048C0042F002025A60034B5B6803F00C03082B2A
:10049C00F9D1C2E7001002400020024008B5FFF776
:1004AC009BFF08BD08B5104B1A6842F001021A6098
:1004BC0059680E4A0A405A601A6822F0847222F473
:1004CC0080321A601A6822F480221A605A6822F468
:1004DC00FE025A604FF41F029A60FFF7DFFF044BD5
:1004EC004FF000629A6008BD001002400000FFF857
:1004FC0000ED00E038B50120FFF75EFE00B938BD15
:10050C00194D01212846FFF7C6FE04460221284654
:10051C00FFF7C1FE154B1B880BB9012C07D0012B23
:10052C0012D0124B1C800120FFF756FEE7E728B9CA
:10053C000F4A138801331BB21380F2E70C4A13885D
:10054C00013B1BB21380ECE7002CEAD1012805D04B
:10055C00074A1388013B1BB21380E2E7044A138855
:10056C0001331BB21380DCE7000C01402200002099
:10057C002000002070B582B001210820FFF798FE02
:10058C0014238DF8073003238DF806304FF40066E2
:10059C00ADF804600C4C01A92046FFF723FE4FF484
:1005AC008055ADF8045001A92046FFF71BFE01222F
:1005BC0031462046FFF776FE012229462046FFF7FA
:1005CC0071FE02B070BD00BF000C014010B50D4CA7
:1005DC0001224FF480512046FFF764FE01224FF4B4
:1005EC0000612046FFF75EFE00224FF4805120464A
:1005FC00FFF758FE00224FF400612046FFF752FE31
:10060C0010BD00BF000C014010B50A4C00224FF485
:10061C0080512046FFF746FE01224FF40061204630
:10062C00FFF740FE01224FF480512046FFF73AFEBF
:10063C0010BD00BF000C014070B50646002419E047
:10064C00802323411E42134D14BF012200224FF47C
:10065C0080512846FFF726FE01224FF40061284600
:10066C00FFF720FE00224FF400612846FFF71AFE28
:10067C000134E4B2072CE3D9064C01224FF400619B
:10068C002046FFF70FFE00224FF400612046FFF7D3
:10069C0009FE70BD000C014010B50446FFF796FF33
:1006AC007820FFF7C9FF0020FFF7C6FF2046FFF7B1
:1006BC00C3FFFFF7A9FF10BD10B50446FFF786FF77
:1006CC007820FFF7B9FF4020FFF7B6FF2046FFF771
:1006DC00B3FFFFF799FF10BD10B50C4640F0B0000A
:1006EC00FFF7DAFF200940F01000FFF7D5FF04F008
:1006FC000F00FFF7D1FF10BD38B5002509E0002031
:10070C00FFF7DAFF0134E4B214F0800FF7D00135B3
:10071C00EDB2072D05D800212846FFF7DDFF002498
:10072C00F2E738BDF8B51546461E7600F6B24F1EF8
:10073C00FF00FFB239463046FFF7CEFF002409E038
:10074C00A5F120030F4A02EB0313185DFFF7B4FF6A
:10075C000134E4B2072CF3D9701C3946C0B2FFF750
:10076C00BBFF00240BE0A5F1200304F108020549AE
:10077C0001EB0313985CFFF79FFF0134E4B2072CE5
:10078C00F1D9F8BD300A00080246012002E002FB54
:10079C0000F019464B1E0029F9D170472DE9F8439A
:1007AC008146884617461E46002419E004EB0805CE
:1007BC00EDB2311B01390A20FFF7E6FFB7FBF0F071
:1007CC00094AA2FB0032D20802EB8202A0EB4202E1
:1007DC003032D2B229464846FFF7A4FF0134E4B2C6
:1007EC00B442E3D3BDE8F883CDCCCCCC08B5002221
:1007FC0004E00133B3F57A7FFBD30132B2F57A7F93
:10080C0001D20023F6E7FFF7B5FEAE20FFF744FF59
:10081C00D520FFF741FF8020FFF73EFFA820FFF710
:10082C003BFF3F20FFF738FFD320FFF735FF0020B9
:10083C00FFF732FF4020FFF72FFFA120FFF72CFF1F
:10084C00C820FFF729FFDA20FFF726FF1220FFF759
:10085C0023FF8120FFF720FFCF20FFF71DFFD920BA
:10086C00FFF71AFFF120FFF717FFDB20FFF714FF4C
:10087C003020FFF711FFA420FFF70EFFA620FFF793
:10088C000BFF8D20FFF708FF1420FFF705FFAF20AB
:10089C00FFF702FFFFF730FF08BD000030B585B051
:1008AC0001210420FFF712FD0024ADF80A40ADF839
:1008BC00064041F61F43ADF8043042F20F73ADF819
:1008CC0008308DF80C40104D01A92846FFF70CFD9F
:1008DC00012211462846FFF75FFD4FF4A060FFF799
:1008EC002FFC1E238DF800308DF801408DF802404E
:1008FC0001248DF803406846FFF72CFC214628465E
:10090C00FFF73CFD05B030BD0008004008B50121E3
:10091C000748FFF750FD00B908BD064A13889BB283
:10092C0001339BB2138001210148FFF750FDF3E71F
:10093C000008004000000020014B188880B270476E
:10094C000000002008B5FFF751FFFFF7A7FFFFF7E6
:10095C00F3FF0246084B1880042302210846FFF7D8
:10096C001DFF0648FFF724FD024606230221032043
:10097C00FFF714FFEBE700BF240000200008004045
:10098C00002103E00B4B5B58435004310A480B4BDE
:10099C0042189A42F6D30A4A02E0002342F8043B7A
:1009AC00084B9A42F9D3FFF77DFD00F017F8FFF7DB
:1009BC00C9FF704740100008000000200400002010
:1009CC000400002028000020FEE77047FEE7FEE749
:1009DC00FEE7FEE7704770477047704770B500261A
:1009EC000C4D0D4C641BA410A64209D100F012FB57
:1009FC0000260A4D0A4C641BA410A64205D170BDFA
:100A0C0055F8043B98470136EEE755F8043B9847F8
:100A1C000136F2E7381000083810000838100008CA
:100A2C003C10000800000000000000000000000066
:100A3C0000000000000000F800000000000000337F
:100A4C003000000000100C06100C06000000000026
:100A5C000000000040C07840C0784000043F04040F
:100A6C003F040400007088FC08300000001820FFD0
:100A7C00211E0000F008F000E018000000211C030B
:100A8C001E211E0000F00888700000001E21232487
:100A9C001927211010160E000000000000000000A5
:100AAC0000000000000000E0180402000000000735
:100ABC001820400000020418E0000000004020183C
:100ACC0007000000404080F0804040000202010F0F
:100ADC0001020200000000F0000000000101011FF3
:100AEC0001010100000000000000000080B0700057
:100AFC0000000000000000000000000000010101E7
:100B0C000101010100000000000000000030300075
:100B1C00000000000000000080601804006018064F
:100B2C000100000000E010080810E000000F102089
:100B3C0020100F00001010F8000000000020203FD3
:100B4C00202000000070080808887000003028245D
:100B5C0022213000003008888848300000182020FE
:100B6C0020110E000000C02010F800000007042423
:100B7C00243F240000F80888880808000019212068
:100B8C0020110E0000E0108888180000000F1120C2
:100B9C0020110E0000380808C83808000000003F7B
:100BAC00000000000070880808887000001C2221DA
:100BBC0021221C0000E010080810E0000000312287
:100BCC0022110F00000000C0C00000000000003027
:100BDC003000000000000080000000000000806079
:100BEC0000000000000080402010080000010204FA
:100BFC0008102000404040404040400004040404E1
:100C0C00040404000008102040800000002010089C
:100C1C0004020100007048080808F00000000030D1
:100C2C0036010000C030C828E810E000071827245F
:100C3C0023140B000000C038E0000000203C23020D
:100C4C000227382008F8888888700000203F202070
:100C5C0020110E00C03008080808380007182020A2
:100C6C002010080008F808080810E000203F202099
:100C7C0020100F0008F88888E8081000203F20207A
:100C8C002320180008F88888E8081000203F20006E
:100C9C0003000000C03008080838000007182020A6
:100CAC00221E020008F808000008F808203F210165
:100CBC0001213F20000808F8080800000020203F10
:100CCC002020000000000808F8080800C080808080
:100CDC007F00000008F888C028180800203F200179
:100CEC002638200008F8080000000000203F2020D3
:100CFC002020300008F8F800F8F80800203F003FEA
:100D0C00003F200008F830C00008F808203F200001
:100D1C0007183F00E01008080810E0000F10202012
:100D2C0020100F0008F808080808F000203F2101E7
:100D3C0001010000E01008080810E0000F1824243E
:100D4C0038504F0008F8888888887000203F2000B1
:100D5C00030C302000708808080838000038202167
:100D6C0021221C00180808F8080818000000203F71
:100D7C002000000008F808000008F808001F2020D8
:100D8C0020201F000878880000C8380800000738A9
:100D9C000E010000F80800F80008F800033C0700FA
:100DAC00073C0300081868808068180820302C0362
:100DBC00032C30200838C800C83808000000203F39
:100DCC002000000010080808C83808002038262128
:100DDC0020201800000000FE020202000000007F2C
:100DEC0040404000000C30C000000000000000013A
:100DFC000638C00000020202FE0000000040404025
:100E0C007F00000000000402020204000000000049
:100E1C0000000000000000000000000080808080C6
:100E2C0080808080000202040000000000000000AE
:100E3C000000000000008080808000000019242247
:100E4C0022223F2008F8008080000000003F112083
:100E5C0020110E000000008080800000000E112088
:100E6C0020201100000000808088F800000E112066
:100E7C0020103F200000808080800000001F222274
:100E8C0022221300008080F0888888180020203FE0
:100E9C00202000000000808080808000006B9494F3
:100EAC009493600008F8008080800000203F2100AF
:100EBC0000203F2000809898000000000020203F78
:100ECC0020200000000000809898000000C0808066
:100EDC00807F000008F8000080808000203F240202
:100EEC002D302000000808F8000000000020203FF2
:100EFC00202000008080808080808000203F2000A7
:100F0C003F20003F8080008080800000203F210037
:100F1C0000203F200000808080800000001F2020E7
:100F2C0020201F00808000808000000080FFA12016
:100F3C0020110E000000008080808000000E112027
:100F4C0020A0FF80808080008080800020203F21B6
:100F5C002000010000008080808080000033242469
:100F6C0024241900008080E0808000000000001F15
:100F7C00202000008080000000808000001F2020C6
:100F8C0020103F20808080000080808000010E3087
:100F9C000806010080800080008080800F300C03E8
:100FAC000C300F0000808000808080000020312EEB
:100FBC000E312000808080000080808080818E70C7
:100FCC001806010000808080808080000021302C79
:100FDC002221300000000000807C02020000000092
:100FEC00003F404000000000FF0000000000000037
:100FFC00FF0000000002027C800000000040403F27
:10100C0000000000000601010202040400000000C0
:10101C0000000000F8B500BFF8BC08BC9E46704745
:0C102C00F8B500BFF8BC08BC9E46704739
:04103800310100087A
:04103C000D0100089A
:041040000B2700007A
:040000050800098D59
:00000001FF
