:020000040800F2
:1000000000500020BD060008070700080907000887
:100010000B0700080D0700080F070008000000008C
:1000200000000000000000000000000011070008B0
:100030001307000800000000150700081707000854
:100040000507000805070008050700080507000860
:100050000507000805070008050700080507000850
:100060000507000805070008050700080507000840
:100070000507000805070008050700080507000830
:100080000507000805070008050700080507000820
:100090000507000805070008050700080507000810
:1000A0000507000805070008050700080507000800
:1000B00005070008050700080507000805070008F0
:1000C00005070008050700080507000805070008E0
:1000D00005070008050700080507000805070008D0
:1000E00005070008050700080507000800000000D4
:1000F0000000000000000000000000000000000000
:0C01000000000000000000005FF808F1A3
:10010C0010B5054C237833B9044B13B10448AFF345
:10011C0000800123237010BD0000002000000000AF
:10012C000C01000808B5034B1BB103490348AFF39E
:10013C00008008BD00000000040000200C01000835
:10014C0030B5CB7803F00F02964613F0100F03D0A6
:10015C0091F802E04EEA020E0B7803B30468002318
:10016C0001E042610133072B18D801229A40B1F803
:10017C0000C032EA0C05F5D14FEA830C0F2505FAC5
:10018C000CF524EA05040EFA0CFC4CEA0404CD78B8
:10019C00282DE6D0482DE5D10261E3E704600B88F9
:1001AC00FF2B25D94468002303E0CD78482D1CD0C3
:1001BC000133072B1BD803F1080C012202FA0CF2B5
:1001CC00B1F800C032EA0C05F2D14FEA830C0F25CE
:1001DC0005FA0CF524EA05040EFA0CFC4CEA0404AE
:1001EC00CD78282DE1D14261DFE70261E0E7446080
:1001FC0030BD0AB1016170474161704721B1054AB8
:10020C009369184390617047024A936923EA00008E
:10021C00906170470010024082B00023019300935C
:10022C002C4A136843F4803313602A4B1B6803F485
:10023C0000330093019B01330193009B1BB9019B7D
:10024C00B3F5A06FF1D1234B1B6813F4003F06D01C
:10025C0001230093009B012B04D002B070470023B4
:10026C000093F7E71C4B1A6842F010021A601A68E8
:10027C0022F003021A601A6842F002021A60A3F517
:10028C0080535A685A605A685A605A6842F48062BD
:10029C005A605A6822F47C125A605A6842F4E81286
:1002AC005A601A6842F080721A600A4B1B6813F08D
:1002BC00007FFAD0074B5A6822F003025A605A6842
:1002CC0042F002025A60034B5B6803F00C03082BEC
:1002DC00F9D1C2E7001002400020024008B5FFF738
:1002EC009BFF08BD08B5104B1A6842F001021A605A
:1002FC0059680E4A0A405A601A6822F0847222F435
:10030C0080321A601A6822F480221A605A6822F429
:10031C00FE025A604FF41F029A60FFF7DFFF044B96
:10032C004FF000629A6008BD001002400000FFF818
:10033C0000ED00E070B582B001210820FFF75EFFF0
:10034C0014238DF8073003238DF806304FF4006624
:10035C00ADF804600C4C01A92046FFF7F1FE4FF4F8
:10036C008055ADF8045001A92046FFF7E9FE0122A3
:10037C0031462046FFF73DFF012229462046FFF774
:10038C0038FF02B070BD00BF000C014010B50D4C21
:10039C0001224FF480512046FFF72BFF01224FF42E
:1003AC0000612046FFF725FF00224FF480512046C4
:1003BC00FFF71FFF00224FF400612046FFF719FFE3
:1003CC0010BD00BF000C014010B50A4C00224FF4C8
:1003DC0080512046FFF70DFF01224FF400612046AB
:1003EC00FFF707FF01224FF480512046FFF701FF72
:1003FC0010BD00BF000C014070B50646002419E08A
:10040C00802323411E42134D14BF012200224FF4BE
:10041C0080512846FFF7EDFE01224FF4006128467B
:10042C00FFF7E7FE00224FF400612846FFF7E1FEDC
:10043C000134E4B2072CE3D9064C01224FF40061DD
:10044C002046FFF7D6FE00224FF400612046FFF74E
:10045C00D0FE70BD000C014010B50446FFF796FFAE
:10046C007820FFF7C9FF0020FFF7C6FF2046FFF7F3
:10047C00C3FFFFF7A9FF10BD10B50446FFF786FFB9
:10048C007820FFF7B9FF4020FFF7B6FF2046FFF7B3
:10049C00B3FFFFF799FF10BD10B50C4640F0B0004C
:1004AC00FFF7DAFF200940F01000FFF7D5FF04F04A
:1004BC000F00FFF7D1FF10BD38B5002509E0002073
:1004CC00FFF7DAFF0134E4B214F0800FF7D00135F6
:1004DC00EDB2072D05D800212846FFF7DDFF0024DB
:1004EC00F2E738BDF8B51546461E7600F6B24F1E3B
:1004FC00FF00FFB239463046FFF7CEFF002409E07B
:10050C00A5F120030F4A02EB0313185DFFF7B4FFAC
:10051C000134E4B2072CF3D9701C3946C0B2FFF792
:10052C00BBFF00240BE0A5F1200304F108020549F0
:10053C0001EB0313985CFFF79FFF0134E4B2072C27
:10054C00F1D9F8BD60070008F8B507460E46154608
:10055C00002406E0A119C9B23846FFF7C3FF0134E5
:10056C00E4B22A5D002AF5D1F8BD0246012002E072
:10057C0002FB00F019464B1E0029F9D17047000010
:10058C002DE9F8438146884617461E46002419E09B
:10059C0004EB0805EDB2311B01390A20FFF7E5FF2A
:1005AC00B7FBF0F0094AA2FB0032D20802EB820240
:1005BC00A0EB42023032D2B229464846FFF792FFF6
:1005CC000134E4B2B442E3D3BDE8F883CDCCCCCC57
:1005DC0008B5002204E00133B3F57A7FFBD3013276
:1005EC00B2F57A7F01D20023F6E7FFF7A3FEAE2027
:1005FC00FFF732FFD520FFF72FFF8020FFF72CFFEE
:10060C00A820FFF729FF3F20FFF726FFD320FFF795
:10061C0023FF0020FFF720FF4020FFF71DFFA12044
:10062C00FFF71AFFC820FFF717FFDA20FFF714FFB8
:10063C001220FFF711FF8120FFF70EFFCF20FFF7ED
:10064C000BFFD920FFF708FFF120FFF705FFDB2098
:10065C00FFF702FF3020FFF7FFFEA420FFF7FCFEA0
:10066C00A620FFF7F9FE8D20FFF7F6FE1420FFF70A
:10067C00F3FEAF20FFF7F0FEFFF71EFF08BD0000F2
:10068C0008B5FFF7A5FF04230C2201210846FFF74C
:10069C0077FF04230C2201210220FFF771FF034A8C
:1006AC0001210320FFF750FFFEE700BF500D0008AB
:1006BC00002103E00B4B5B58435004310A480B4BB1
:1006CC0042189A42F6D30A4A02E0002342F8043B4D
:1006DC00084B9A42F9D3FFF705FE00F017F8FFF725
:1006EC00CFFF70477C0D00080000002000000020A8
:1006FC00000000201C000020FEE77047FEE7FEE72C
:10070C00FEE7FEE7704770477047704770B50026EC
:10071C000C4D0D4C641BA410A64209D100F018FB23
:10072C0000260A4D0A4C641BA410A64205D170BDCC
:10073C0055F8043B98470136EEE755F8043B9847CB
:10074C000136F2E7740D0008740D0008740D0008F2
:10075C00780D000800000000000000000000000000
:10076C0000000000000000F8000000000000003352
:10077C003000000000100C06100C060000000000F9
:10078C000000000040C07840C0784000043F0404E2
:10079C003F040400007088FC08300000001820FFA3
:1007AC00211E0000F008F000E018000000211C03DE
:1007BC001E211E0000F00888700000001E2123245A
:1007CC001927211010160E00000000000000000078
:1007DC0000000000000000E0180402000000000708
:1007EC001820400000020418E0000000004020180F
:1007FC0007000000404080F0804040000202010FE2
:10080C0001020200000000F0000000000101011FC5
:10081C0001010100000000000000000080B0700029
:10082C0000000000000000000000000000010101B9
:10083C000101010100000000000000000030300048
:10084C000000000000000000806018040060180622
:10085C000100000000E010080810E000000F10205C
:10086C0020100F00001010F8000000000020203FA6
:10087C002020000000700808088870000030282430
:10088C0022213000003008888848300000182020D1
:10089C0020110E000000C02010F8000000070424F6
:1008AC00243F240000F8088888080800001921203B
:1008BC0020110E0000E0108888180000000F112095
:1008CC0020110E0000380808C83808000000003F4E
:1008DC00000000000070880808887000001C2221AD
:1008EC0021221C0000E010080810E000000031225A
:1008FC0022110F00000000C0C000000000000030FA
:10090C00300000000000008000000000000080604B
:10091C0000000000000080402010080000010204CC
:10092C0008102000404040404040400004040404B3
:10093C00040404000008102040800000002010086F
:10094C0004020100007048080808F00000000030A4
:10095C0036010000C030C828E810E0000718272432
:10096C0023140B000000C038E0000000203C2302E0
:10097C000227382008F8888888700000203F202043
:10098C0020110E00C0300808080838000718202075
:10099C002010080008F808080810E000203F20206C
:1009AC0020100F0008F88888E8081000203F20204D
:1009BC002320180008F88888E8081000203F200041
:1009CC0003000000C0300808083800000718202079
:1009DC00221E020008F808000008F808203F210138
:1009EC0001213F20000808F8080800000020203FE3
:1009FC002020000000000808F8080800C080808053
:100A0C007F00000008F888C028180800203F20014B
:100A1C002638200008F8080000000000203F2020A5
:100A2C002020300008F8F800F8F80800203F003FBC
:100A3C00003F200008F830C00008F808203F2000D4
:100A4C0007183F00E01008080810E0000F102020E5
:100A5C0020100F0008F808080808F000203F2101BA
:100A6C0001010000E01008080810E0000F18242411
:100A7C0038504F0008F8888888887000203F200084
:100A8C00030C30200070880808083800003820213A
:100A9C0021221C00180808F8080818000000203F44
:100AAC002000000008F808000008F808001F2020AB
:100ABC0020201F000878880000C83808000007387C
:100ACC000E010000F80800F80008F800033C0700CD
:100ADC00073C0300081868808068180820302C0335
:100AEC00032C30200838C800C83808000000203F0C
:100AFC002000000010080808C838080020382621FB
:100B0C0020201800000000FE020202000000007FFE
:100B1C0040404000000C30C000000000000000010C
:100B2C000638C00000020202FE00000000404040F7
:100B3C007F0000000000040202020400000000001C
:100B4C000000000000000000000000008080808099
:100B5C008080808000020204000000000000000081
:100B6C00000000000000808080800000001924221A
:100B7C0022223F2008F8008080000000003F112056
:100B8C0020110E000000008080800000000E11205B
:100B9C0020201100000000808088F800000E112039
:100BAC0020103F200000808080800000001F222247
:100BBC0022221300008080F0888888180020203FB3
:100BCC00202000000000808080808000006B9494C6
:100BDC009493600008F8008080800000203F210082
:100BEC0000203F2000809898000000000020203F4B
:100BFC0020200000000000809898000000C0808039
:100C0C00807F000008F8000080808000203F2402D4
:100C1C002D302000000808F8000000000020203FC4
:100C2C00202000008080808080808000203F200079
:100C3C003F20003F8080008080800000203F21000A
:100C4C0000203F200000808080800000001F2020BA
:100C5C0020201F00808000808000000080FFA120E9
:100C6C0020110E000000008080808000000E1120FA
:100C7C0020A0FF80808080008080800020203F2189
:100C8C00200001000000808080808000003324243C
:100C9C0024241900008080E0808000000000001FE8
:100CAC00202000008080000000808000001F202099
:100CBC0020103F20808080000080808000010E305A
:100CCC000806010080800080008080800F300C03BB
:100CDC000C300F0000808000808080000020312EBE
:100CEC000E312000808080000080808080818E709A
:100CFC001806010000808080808080000021302C4C
:100D0C002221300000000000807C02020000000064
:100D1C00003F404000000000FF0000000000000009
:100D2C00FF0000000002027C800000000040403FF9
:100D3C000000000000060101020204040000000093
:100D4C000000000068656C6C6F20776F726C64003B
:100D5C00F8B500BFF8BC08BC9E467047F8B500BF9C
:080D6C00F8BC08BC9E4670476C
:040D74003101000841
:040D78000D01000861
:04000005080006BD2C
:00000001FF
